S015000054494D4552305F45585F494E542E7372656318
S11300000C9434000C9451000C9451000C94510045
S11300100C9451000C9451000C9451000C94510018
S11300200C9451000C9451000C9451000C94510008
S11300300C9451000C9451000C9451000C945100F8
S11300400C9453000C9451000C9451000C945100E6
S11300500C9451000C9451000C9451000C945100D8
S11300600C9451000C94510011241FBECFEFD8E022
S1130070DEBFCDBF11E0A0E0B1E0ECEFF0E002C0E4
S113008005900D92A030B107D9F721E0A0E0B1E0CE
S113009001C01D92A130B207E1F70E946E000C94DA
S11300A07C000C9400001F920F920FB60F92112443
S11300B08F93809100018F5F809300018F910F9047
S11300C00FBE0F901F901895809100018F3128F07A
S11300D085B1809585B91092000108958FEF84B998
S11300E016BC85E085BD14BC81E080936E0015B814
S10F00F078940E946400FDCFF894FFCFC8
S9030000FC
