:100000000C9434000C943E000C943E000C943E0082
:100010000C943E000C943E000C943E000C943E0068
:100020000C943E000C943E000C943E000C9457003F
:100030000C943E000C943E000C943E000C943E0048
:100040000C943E000C943E000C943E000C943E0038
:100050000C943E000C943E000C943E000C943E0028
:100060000C943E000C943E0011241FBECFEFD8E04C
:10007000DEBFCDBF0E9440000C946A000C940000CB
:100080008FEF84B9109285001092840085E08093F0
:1000900081001092800083E89EE190938900809314
:1000A000880082E080936F0015B87894FFCF1F928C
:1000B0000F920FB60F9211248F9385B1809585B959
:1000C00010928500109284008F910F900FBE0F90B8
:0800D0001F901895F894FFCF72
:00000001FF
