:100000000C9434000C943E000C943E000C943E0082
:100010000C943E000C943E000C943E000C943E0068
:100020000C943E000C943E000C943E000C943E0058
:100030000C943E000C943E000C943E000C943E0048
:100040000C943E000C943E000C943E000C943E0038
:100050000C943E000C943E000C943E000C943E0028
:100060000C943E000C943E0011241FBECFEFD8E04C
:10007000DEBFCDBF0E9440000C9453000C940000E2
:100080008FEF84B916BC85E085BD14BC15B891E02E
:100090008FE1A89BFECF95BB16BC8150D1F785B1EF
:0A00A000809585B9F5CFF894FFCFE5
:00000001FF
